:100000000C94F4000C9415010C9415010C9415013A
:100010000C9415010C9415010C9415010C94150108
:100020000C9415010C9415010C9415010C941501F8
:100030000C9415010C9415010C9415010C941501E8
:100040000C9415010C9415010C9415010C941501D8
:100050000C949B410C9415010C9415010C94150102
:100060000C9415010C9415010C9415010C941501B8
:100070000C9415010C9415010C9415010C941501A8
:100080000C9415010C9415010C9415010C94150198
:100090000C9415010C9415010C9415010C94150188
:1000A0000C9415010C9415010C9415010C94150178
:1000B0000C9415010C9415010C9415010C94150168
:1000C0000C9415010C9415010C9415010C94150158
:1000D0000C9415010C9415010C9415010C94150148
:1000E0000C9415010C9415010C9415010C94150138
:1000F0000C9415010C9415010C9415010C94150128
:100100000C9460430C9415010C9415010C9415018A
:100110000C9415010C9415010C9415010C94150107
:100120000C9415010C9415010C9415010C941501F7
:100130000C9415010C9415010C9415010C941501E7
:100140000C9415010C9415010C9415010C947C422F
:100150000C9415010C9415010C9415010C941501C7
:100160000C9415010C9415010C9415010C941501B7
:100170000C9415010C9415010C9415010C941501A7
:100180000C9415010C9415010C9415010C94150197
:100190000C9415010C9415010C9415010C94150187
:1001A0000C9415010C9415010C9415010C94150177
:1001B0000C9415010C9415010C9415010C94150167
:1001C0000C9415010C9415010C9415010C94150157
:1001D0000C9415010C9415010C9415010C94150147
:1001E0000C9415010C94150111241FBEC0E0D0E43D
:1001F000DEBFCDBF00E00CBF10E2A0E0B0E2EAE15C
:10020000F7EA00E00BBF02C007900D92A43EB107D1
:10021000D9F71AE2A4EEB0E201C01D92AF30B107E7
:10022000E1F70E949C3F0C948B530C940000DF93E9
:10023000CF930F920F92CDB7DEB789839A838981CE
:100240009A8122E08030920789F480E20E9494042F
:10025000282F89819A81FC01248781E20E949404DD
:10026000282F89819A81FC01258710C084E20E9491
:100270009404282F89819A81FC01248785E20E94B9
:100280009404282F89819A81FC0125870F900F9073
:10029000CF91DF910895DF93CF93CDB7DEB7259748
:1002A000CDBFDEBF8B839C836D838B819C8121E0DE
:1002B000FC0123838B819C81FC01248135818D810C
:1002C000882F90E0A901481B590BCA0189839A83A2
:1002D00089819A812596CDBFDEBFCF91DF910895A8
:1002E000DF93CF93CDB7DEB72597CDBFDEBF8B832E
:1002F0009C836D838B819C8121E0FC0123838B8116
:100300009C81FC01248135818D81992787FD909501
:10031000A901481B590BCA0189839A8389819A8153
:100320002596CDBFDEBFCF91DF910895DF93CF93A8
:100330000F920F92CDB7DEB789839A8389819A8114
:1003400021E0FC01238389819A81FC0184819581CC
:100350000F900F90CF91DF910895DF93CF930F927D
:100360000F92CDB7DEB789839A8389819A8121E084
:10037000FC01238389819A81FC0184810F900F9075
:10038000CF91DF910895DF93CF930F920F92CDB766
:10039000DEB789839A8389819A8121E0FC012383D6
:1003A00089819A81FC0185810F900F90CF91DF9117
:1003B00008950F931F93DF93CF93CDB7DEB76B975D
:1003C000CDBFDEBF8A8F9B8F8A8D9B8DFC01848180
:1003D00089838A8D9B8DFC01148280E090E0A0E8E7
:1003E000B2E48A839B83AC83BD836A817B818C81E9
:1003F0009D812BEA3AEA4AE25FE30E94EC4FDC017E
:10040000CB018E839F83A887B98711E06E817F819E
:100410008885998520E030E040E85FE30E94DB4E6C
:1004200088230CF010E0112319F081E08A87A3C023
:1004300011E06E817F818885998520E030E04FE76B
:1004400053E40E94E84F18160CF010E0112309F451
:1004500089C06A817B818C819D8120E030E04AE700
:1004600054E40E94DF4EDC01CB018B879C87AD8773
:10047000BE876B857C858D859E8520E030E04AEFC8
:1004800053E40E94EC4FDC01CB018F87988BA98B42
:10049000BA8B11E06F85788989899A8920E030E0EC
:1004A00040E85FE30E94DB4E88230CF010E011234C
:1004B00029F081E090E08B8B9C8B46C011E06F852A
:1004C000788989899A8920E03FEF4FE757E40E94B5
:1004D000E84F18160CF010E0112361F16B857C8554
:1004E0008D859E8520E030E040E251E40E94EC4F93
:1004F000DC01CB01BC01CD010E94474FDC01CB01E7
:100500008B8B9C8B12C082E390E08D8B9E8B8D89B0
:100510009E898C01C8010197F1F78C010D8B1E8B10
:100520008B899C8901978B8B9C8B8B899C890097ED
:1005300051F728C06F85788989899A890E94474F29
:10054000DC01CB018B8B9C8B8B899C898F8B988F4B
:100550008F89988D8C01F8013197F1F78F010F8BFE
:10056000188F10C06E817F81888599850E94474FC2
:10057000DC01CB018A878A85898F898D182F1A958E
:10058000F1F7198F8A8D9B8D2981FC0124836B964D
:10059000CDBFDEBFCF91DF911F910F9108950F93D3
:1005A0001F93DF93CF93CDB7DEB76B97CDBFDEBF81
:1005B0008A8F9B8F8A8D9B8DFC01848189838A8D94
:1005C0009B8D21E0FC01248380E090E0A0E0B3E477
:1005D0008A839B83AC83BD836A817B818C819D816F
:1005E0002BEA3AEA4AE25FE30E94EC4FDC01CB01DE
:1005F0008E839F83A887B98711E06E817F8188856C
:10060000998520E030E040E85FE30E94DB4E8823DC
:100610000CF010E0112319F081E08A87A3C011E0EB
:100620006E817F818885998520E030E04FE753E433
:100630000E94E84F18160CF010E0112309F489C04D
:100640006A817B818C819D8120E030E04AE754E41F
:100650000E94DF4EDC01CB018B879C87AD87BE8774
:100660006B857C858D859E8520E030E04AEF53E4E4
:100670000E94EC4FDC01CB018F87988BA98BBA8B42
:1006800011E06F85788989899A8920E030E040E817
:100690005FE30E94DB4E88230CF010E0112329F069
:1006A00081E090E08B8B9C8B46C011E06F85788950
:1006B00089899A8920E03FEF4FE757E40E94E84F8D
:1006C00018160CF010E0112361F16B857C858D8587
:1006D0009E8520E030E040E251E40E94EC4FDC01D6
:1006E000CB01BC01CD010E94474FDC01CB018B8BBC
:1006F0009C8B12C082E390E08D8B9E8B8D899E89AE
:100700008C01C8010197F1F78C010D8B1E8B8B8931
:100710009C8901978B8B9C8B8B899C89009751F7C7
:1007200028C06F85788989899A890E94474FDC01A2
:10073000CB018B8B9C8B8B899C898F8B988F8F891E
:10074000988D8C01F8013197F1F78F010F8B188F7D
:1007500010C06E817F81888599850E94474FDC019A
:10076000CB018A878A85898F898D182F1A95F1F791
:10077000198F8A8D9B8D2981FC0124836B96CDBFB7
:10078000DEBFCF91DF911F910F910895DF93CF933B
:10079000CDB7DEB72A97CDBFDEBF8E839F83688734
:1007A00079874A878A858823A9F119821A821B8250
:1007B0001C8224C088859985FC018081282F2068AF
:1007C00088859985FC01208388859985FC01838132
:1007D000882F90E0817090700097B1F3888599859B
:1007E00060E00E944B0129813A81820F931F898327
:1007F0009A838B819C8101968B839C838B819C81C6
:1008000084309105BCF289819A8196958795969559
:1008100087951BC01D8288859985FC018081282FC2
:10082000206888859985FC01208388859985FC014D
:100830008381882F90E0817090700097B1F3888554
:1008400099850E9496018D838D812A96CDBFDEBF4A
:10085000CF91DF910895DF93CF93CDB7DEB72A977D
:10086000CDBFDEBF8E839F83688779874A878A855D
:100870008823C1F119821A821B821C8224C08885B8
:100880009985FC018081282F206888859985FC0145
:10089000208388859985FC018381882F90E0817071
:1008A00090700097B1F38885998560E00E9470018F
:1008B00029813A81820F931F89839A838B819C813E
:1008C00001968B839C838B819C8184309105BCF243
:1008D00089819A8199230CF403969595879595952E
:1008E00087951CC01D8288859985FC018081282FF1
:1008F000206888859985FC01208388859985FC017D
:100900008381882F90E0817090700097B1F3888583
:10091000998560E00E9470018D838D812A96CDBFFC
:10092000DEBFCF91DF9108951F93DF93CF93CDB7B3
:10093000DEB72597CDBFDEBF8D838AEC91E022E044
:10094000FC0120838D81882F90E089839A8389819F
:100950009A81FC0114911B838B818C838AEC91E03A
:10096000FC0110828C812596CDBFDEBFCF91DF9137
:100970001F9108950F93DF93CF9300D000D0CDB790
:10098000DEB78C839D836E838FE390E0FC018081D2
:100990008B83F8948C819D8189839A838BE390E08B
:1009A000FC01108289819A812E81FC0108ED04BF2F
:1009B00020838FE390E02B81FC0120832696CDBF1E
:1009C000DEBFCF91DF910F910895DF93CF9300D0D9
:1009D000CDB7DEB789836A834B8380E590E02A81B7
:1009E000222311F020E201C020E03981322B2B813B
:1009F000232BFC0122832396CDBFDEBFCF91DF9155
:100A00000895DF93CF930F920F92CDB7DEB789830E
:100A10006A838A818F718A8380E590E039812A8197
:100A2000232BFC0125830F900F90CF91DF91089528
:100A3000DF93CF930F920F92CDB7DEB78A8380E515
:100A400090E020E530E0F9012081322F2A812095C5
:100A50002323FC01208380E590E0FC0190818A81C2
:100A60008923898389810F900F90CF91DF91089519
:100A7000DF93CF9300D0CDB7DEB78A836B839A81A3
:100A80008B81892B898381E490E069810E94BA047B
:100A90002396CDBFDEBFCF91DF910895DF93CF9333
:100AA0000F920F92CDB7DEB78A8380E490E0FC010D
:100AB0008081982F987F8A81892B898380E490E0B8
:100AC00069810E94BA0480E490E0FC0190818A81EF
:100AD0008923898389810F900F90CF91DF910895A9
:100AE000DF93CF930F92CDB7DEB7898380E490E098
:100AF00020E430E0F9012381322F317F2981232B3B
:100B00002160FC0123830F90CF91DF910895DF9343
:100B1000CF930F920F92CDB7DEB789836A8380E5BA
:100B200090E020E530E0F9012681322F29812095DF
:100B300032232A81222311F0298101C020E0232BB6
:100B4000FC0126838981813051F488E690E028E613
:100B500030E0F90120812160FC0120830CC08981F3
:100B6000823049F480E690E020E630E0F90120810F
:100B70002160FC0120830F900F90CF91DF910895A9
:100B8000DF93CF93CDB7DEB783E590E063E00E94BB
:100B9000BA04CF91DF910895DF93CF93CDB7DEB73D
:100BA00082E490E061E00E94BA04CF91DF91089561
:100BB000DF93CF93CDB7DEB72A97CDBFDEBF8D834E
:100BC0009E836F83788749875A878D819E81898329
:100BD0009A838F8198858B839C8319C089819A81A0
:100BE0002B813C81F90120813181FC0120833183FB
:100BF00089819A81029689839A838B819C8102964E
:100C00008B839C8389859A85029789879A878985B2
:100C10009A858230910510F712C08B819C81FC016E
:100C2000208189819A81FC01208389819A810196A2
:100C300089839A838B819C8101968B839C8321E09D
:100C400089859A85009709F420E089859A8501971E
:100C500089879A87222309F72A96CDBFDEBFCF91D5
:100C6000DF910895DF93CF93CDB7DEB72897CDBF3F
:100C7000DEBF8B839C836D837E834F8358878B81FC
:100C80009C8189839A830AC02D8189819A81FC0184
:100C9000208389819A81019689839A8321E08F81BB
:100CA0009885009709F420E08F81988501978F83BC
:100CB0009887222349F72896CDBFDEBFCF91DF91D9
:100CC0000895DF93CF93CDB7DEB72C97CDBFDEBFAE
:100CD0008F83988769877A874B875C878F81988510
:100CE00089839A8389859A858B839C831D821E8242
:100CF000000021E08B859C85009709F420E08B851E
:100D00009C8501978B879C87222321F189819A8179
:100D1000FC018081282F30E08B819C81FC01808147
:100D2000882F90E0A901481B590BCA018D839E832F
:100D300021E08D819E81009709F020E089819A81D0
:100D4000019689839A838B819C8101968B839C83F6
:100D5000222379F68D819E812C96CDBFDEBFCF9167
:100D6000DF910895DF93CF9300D00F92CDB7DEB718
:100D700089839A836B837C8305C089819A810196DC
:100D800089839A8389819A81FC018081882359F023
:100D900089819A81FC018081282F30E08B819C81A0
:100DA0002817390751F789819A81FC018081882FA2
:100DB00090E02496CDBFDEBFCF91DF9108950F93D1
:100DC000DF93CF93CDB7DEB72B97CDBFDEBF8E833A
:100DD0009F83488759876A877B878E819F81FC0123
:100DE00086A597A5A0A9B1A989839A83AB83BC8363
:100DF00029813A814B815C8188859985AA85BB854B
:100E0000281739074A075B0709F49CC08E819F8128
:100E1000DC0114968C911497882309F46AC08E81A2
:100E20009F81DC011196EC918E819F81BC016E5CEB
:100E30007F4F29813A814B815C818E2F01E00E9496
:100E4000FD46882311F081E07EC08E819F81FC01E8
:100E500014828E819F81DC0192962D913D914D915E
:100E60005C9195978E819F81FC01868D978DA0A1C5
:100E7000B1A1280F391F4A1F5B1F89819A81AB815D
:100E8000BC8182179307A407B50798F58E819F81CF
:100E9000DC0113968C9113978D8328C08E819F81DE
:100EA000FC01868D978DA0A1B1A129813A814B814A
:100EB0005C81820F931FA41FB51F89839A83AB8324
:100EC000BC838E819F81DC011196EC918E819F8184
:100ED000BC016E5C7F4F29813A814B815C818E2FF2
:100EE00001E00E94FD468D8181508D838D8182308D
:100EF000A8F688859985AA85BB850097A105B105C7
:100F000009F18E819F81DC011196EC918E819F8188
:100F1000BC016E5C7F4F288539854A855B858E2FA5
:100F200001E00E947546882311F081E00CC02E81FB
:100F30003F8188859985AA85BB85F90186A797A7F2
:100F4000A0ABB1AB80E02B96CDBFDEBFCF91DF91E0
:100F50000F9108950F93DF93CF9300D0CDB7DEB7F5
:100F60008A839B838A819B8140E050E0BA010E9482
:100F7000DF0689838981882309F093C08A819B8158
:100F8000DC018C91833009F07EC08A819B81FC0159
:100F90008581882309F477C08A819B81DC019E9634
:100FA0001D921D921D921C92D1978A819B81C2969F
:100FB00060E070E040E052E00E9432068A819B814E
:100FC000C29682509E4F25E53AEAFC012083318388
:100FD0008A819B81C2969C0182E592E5A1E6B1E4FB
:100FE000F90180839183A283B3838A819B81C29616
:100FF0009C012C513E4F82E792E7A1E4B1E6F90152
:1010000080839183A283B3838A819B81C2969C0152
:1010100028513E4F8A819B81FC0186859785A08956
:10102000B189F90180839183A283B3838A819B81F3
:10103000C2969C0124513E4F8A819B81FC0182858E
:101040009385A485B585F90180839183A283B383B9
:101050008A819B81DC011196EC918A819B81BC0184
:101060006E5C7F4F8A819B81DC0152962D913D9170
:101070004D915C9155978E2F01E00E94FD468A812B
:101080009B81FC0115828A819B81DC0111968C91E8
:1010900060E040E050E00E94A347882311F081E027
:1010A000898389812396CDBFDEBFCF91DF910F91D8
:1010B0000895DF93CF9300D000D0CDB7DEB78983FA
:1010C0009A834B835C836D837E838B819C81AD810E
:1010D000BE810297A109B1098B839C83AD83BE8336
:1010E00089819A81FC01828D938DA48DB58D9C019F
:1010F000AD0122503040404050408B819C81AD81F9
:10110000BE8182179307A407B50720F080E090E026
:10111000DC011DC089819A81FC018281882F90E0C9
:10112000A0E0B0E02B813C814D815E81BC01CD010E
:101130000E944F509B01AC0189819A81FC0182A5DC
:1011400093A5A4A5B5A5820F931FA41FB51FBC012D
:10115000CD012696CDBFDEBFCF91DF910895DF93FD
:10116000CF93CDB7DEB72C97CDBFDEBF8F839887E7
:1011700049875A876B877C8789859A85AB85BC852B
:1011800082309105A105B10580F08F819885FC0121
:10119000228D338D448D558D89859A85AB85BC858F
:1011A00082179307A407B50728F081E090E0A0E03C
:1011B000B0E00FC18F819885FC018081882F90E07D
:1011C0008230910509F490C08330910509F4BFC0C5
:1011D0008130910509F0FAC089859A8589839A83BF
:1011E00089819A819695879529813A81820F931FEB
:1011F00089839A838F819885FC0122A133A144A120
:1012000055A189819A81892F99278695CC01A0E0E3
:10121000B0E0280F391F4A1F5B1F8F819885BA01E4
:10122000A9010E94DF06882309F0C9C089819A813B
:1012300091702F813885820F931FC296FC018081A7
:10124000882F90E08B839C8389819A810196898382
:101250009A838F819885FC0122A133A144A155A1D5
:1012600089819A81892F99278695CC01A0E0B0E0E9
:10127000280F391F4A1F5B1F8F819885BA01A9016A
:101280000E94DF06882309F09CC089819A819170B1
:101290002F813885820F931FC296FC018081882F91
:1012A00090E0982F88272B813C81822B932B8B8376
:1012B0009C8389859A8581709070882361F08B81E9
:1012C0009C81929582958F7089279F708927CC0188
:1012D000A0E0B0E008C08B819C81CC01A0E0B0E030
:1012E0009F70A070B07075C08F819885FC0122A19D
:1012F00033A144A155A189859A85AB85BC85892FE9
:101300009A2FAB2FBB27280F391F4A1F5B1F8F81D6
:101310009885BA01A9010E94DF06882309F053C00D
:101320008F8198859C012E5C3F4F89859A85880F17
:10133000991F9170820F931F8D839E838D819E8153
:10134000FC0180819181CC01A0E0B0E042C08F819E
:101350009885FC0122A133A144A155A189859A85D4
:10136000AB85BC85689416F8B695A7959795879533
:101370001694D1F7280F391F4A1F5B1F8F8198855C
:10138000BA01A9010E94DF068823F9F48F819885AC
:101390009C012E5C3F4F89859A85880F991F880F85
:1013A000991F9170820F931F8D839E838D819E81E3
:1013B000FC0180819181A281B381BF700AC00000CD
:1013C00005C0000003C0000001C000008FEF9FEFC8
:1013D000DC01BC01CD012C96CDBFDEBFCF91DF91EA
:1013E00008950F931F93DF93CF93CDB7DEB72F9759
:1013F000CDBFDEBF8E839F83488759876A877B87EF
:101400000C871D872E873F8788859985AA85BB8590
:1014100082309105A105B10580F08E819F81FC018C
:10142000228D338D448D558D88859985AA85BB8500
:1014300082179307A407B50718F082E089835CC17F
:101440008E819F81FC018081882F90E08230910500
:1014500009F4BBC08330910509F4EBC081309105DC
:1014600009F03BC1888599858A839B838A819B810A
:10147000969587952A813B81820F931F8A839B8350
:101480008E819F81FC0122A133A144A155A18A81B3
:101490009B81892F99278695CC01A0E0B0E0280F89
:1014A000391F4A1F5B1F8E819F81BA01A9010E94CB
:1014B000DF0689838981882309F012C18E819F818B
:1014C0009C012E5C3F4F8A819B819170820F931FFC
:1014D0008C839D838885998581709070882391F095
:1014E0008C819D81FC018081282F2F708C85882F15
:1014F00090E082959295907F9827807F9827822B05
:10150000282F01C02C858C819D81FC0120838A813C
:101510009B8101968A839B838E819F8121E0FC01C0
:1015200024838E819F81FC0122A133A144A155A176
:101530008A819B81892F99278695CC01A0E0B0E014
:10154000280F391F4A1F5B1F8E819F81BA01A90195
:101550000E94DF0689838981882309F0C3C08E81B8
:101560009F819C012E5C3F4F8A819B819170820FED
:10157000931F8C839D8388859985817090708823C3
:1015800071F08C859D85AE85BF85689413F8B695FE
:10159000A795979587951694D1F7282F11C08C8120
:1015A0009D81FC018081282F207F8C859D85AE85C3
:1015B000BF85892F9A2FAB2FBB278F70822B282FA7
:1015C0008C819D81FC01208392C08E819F81FC01D2
:1015D00022A133A144A155A188859985AA85BB85FF
:1015E000892F9A2FAB2FBB27280F391F4A1F5B1F4C
:1015F0008E819F81BA01A9010E94DF0689838981BA
:10160000882309F071C08E819F819C012E5C3F4F21
:1016100088859985880F991F9170820F931F8C83FD
:101620009D838C819D812C853D85FC0120833183A8
:101630005EC08E819F81FC0122A133A144A155A1EE
:1016400088859985AA85BB85689416F8B695A7956F
:10165000979587951694D1F7280F391F4A1F5B1F5E
:101660008E819F81BA01A9010E94DF068983898149
:101670008823E1F58E819F819C012E5C3F4F8885F8
:101680009985880F991F880F991F9170820F931F5A
:101690008C839D838C819D81FC0180819181A281BD
:1016A000B38180709070A070B07F2C853D854E8591
:1016B0005F85822B932BA42BB52B8C879D87AE87C0
:1016C000BF872C813D818C859D85AE85BF85F901C5
:1016D00080839183A283B3830AC082E0898307C099
:1016E000000005C0000003C0000001C000008E81A2
:1016F0009F8121E0FC01248389812F96CDBFDEBF2D
:10170000CF91DF911F910F9108950F931F93DF9356
:10171000CF93CDB7DEB72B97CDBFDEBF8E839F8330
:10172000488759876A877B8788859985AA85BB857D
:1017300082309105A105B10580F08E819F81FC0169
:10174000228D338D448D558D88859985AA85BB85DD
:1017500082179307A407B50718F082E089838AC02F
:10176000198273C08E819F81288539854A855B8562
:10177000BA01A9010E94AF08DC01CB018A839B83D7
:10178000AC83BD838A819B81AC81BD810097A1051B
:10179000B10509F46CC08A819B81AC81BD81813027
:1017A0009105A105B10519F482E0898363C08A819E
:1017B0009B81AC81BD818F3FFFEF9F07FFEFAF079C
:1017C000FFEFBF0719F481E0898354C08E819F81A8
:1017D000288539854A855B85BA01A90100E010E0BA
:1017E00098010E94F10989838981882309F041C009
:1017F0008E819F81FC0186859785A089B1898F3F65
:10180000FFEF9F07FFEFAF07FFEFBF07B1F08E813C
:101810009F81FC0186859785A089B1890196A11DCC
:10182000B11D2E813F81F90186879787A08BB18BEF
:101830008E819F8121E0FC0125838A819B81AC817F
:10184000BD8188879987AA87BB878E819F81FC018C
:10185000228D338D448D558D88859985AA85BB85CC
:1018600082179307A407B50708F47CCF03C00000D4
:1018700001C0000089812B96CDBFDEBFCF91DF91E3
:101880001F910F9108950F931F93DF93CF93CDB7BF
:10189000DEB76397CDBFDEBF8E879F87488B598B9E
:1018A0006A8B7B8B88899989AA89BB890097A10556
:1018B000B10569F58E859F85FC0182859385A48598
:1018C000B5858D839E83AF83B8878D819E81AF81DF
:1018D000B8850097A105B10589F08E859F85FC012B
:1018E000228D338D448D558D8D819E81AF81B8853C
:1018F00082179307A407B50708F444C081E090E07D
:10190000A0E0B0E08D839E83AF83B8873BC08E8517
:101910009F85288939894A895B89BA01A9010E9472
:10192000AF08DC01CB018A879B87AC87BD878A859E
:101930009B85AC85BD8582309105A105B10528F454
:1019400081E090E0A0E0B0E00EC18E859F85FC01B3
:10195000228D338D448D558D8A859B85AC85BD85C3
:1019600082179307A407B50728F48A859B85AC8561
:10197000BD85F9C088899989AA89BB898D839E8391
:10198000AF83B8878D819E81AF81B88589839A8323
:10199000AB83BC8301C0000089819A81AB81BC818B
:1019A0000196A11DB11D89839A83AB83BC838E856B
:1019B0009F85FC01228D338D448D558D89819A81BF
:1019C000AB81BC8182179307A407B507C8F082E0FA
:1019D00090E0A0E0B0E089839A83AB83BC83298147
:1019E0003A814B815C818D819E81AF81B885821760
:1019F0009307A407B50720F480E090E0DC01B3C0B2
:101A00008E859F8529813A814B815C81BA01A9012C
:101A10000E94AF08DC01CB018A879B87AC87BD871A
:101A20008A859B85AC85BD850097A105B10599F494
:101A30008E859F8529813A814B815C81BA01A901FC
:101A40000FEF1FEF2FEF3FE00E94F1098987898593
:101A5000882369F141C08A859B85AC85BD858F3F10
:101A6000FFEF9F07FFEFAF07FFEFBF0749F08A8542
:101A70009B85AC85BD8581309105A105B10529F413
:101A80008A859B85AC85BD856EC029813A814B8155
:101A90005C818D819E81AF81B885281739074A07FF
:101AA0005B0709F078CF80E090E0DC015CC08889BA
:101AB0009989AA89BB890097A105B10569F08E852E
:101AC0009F85488959896A897B8909811A812B8177
:101AD0003C810E94F10989878985882389F52E85B3
:101AE0003F8589819A81AB81BC81F9018287938787
:101AF000A487B5878E859F85FC0186859785A089FB
:101B0000B1898F3FFFEF9F07FFEFAF07FFEFBF07E1
:101B100031F18E859F85FC0186859785A089B189E5
:101B20000197A109B1092E853F85F901868797871D
:101B3000A08BB18B8E859F8521E0FC0125830FC092
:101B40008985813021F48FEF9FEFDC0104C081E0B3
:101B500090E0A0E0B0E089839A83AB83BC83898165
:101B60009A81AB81BC81BC01CD016396CDBFDEBF44
:101B7000CF91DF911F910F910895EF92FF920F93F4
:101B80001F93DF93CF93CDB7DEB76097CDBFDEBF96
:101B90008B879C874D875E876F87788B8B859C852D
:101BA000FC0180A191A104968D839E838D859E85E5
:101BB000AF85B889072E79E0B695A7959795879553
:101BC0007A95D1F7702D2B853C85F90120813181E3
:101BD000F9012281222F30E040E050E0BC01CD012C
:101BE0000E94815029833A834B835C838D819E813F
:101BF000FC0180819181A281B3818F839887A9871D
:101C0000BA878D819E8104968D839E838F8198856E
:101C1000A985BA850097A105B10521F480E090E07F
:101C2000DC0137C029813A814B815C818F819885A5
:101C3000A985BA85281739074A075B0780F48D8183
:101C40009E81FC01208131814281538189819A8169
:101C5000AB81BC81820F931FA41FB51F1AC02981BD
:101C60003A814B815C818F819885A985BA857901FC
:101C70008A01E81AF90A0A0B1B0BD801C7018983EC
:101C80009A83AB83BC838D819E8104968D839E83D2
:101C9000ADCFBC01CD016096CDBFDEBFCF91DF914E
:101CA0001F910F91FF90EF900895DF93CF93CDB7E1
:101CB000DEB72A97CDBFDEBF8F83988769877A8783
:101CC0008F81988529853A85FC01248335838F810E
:101CD0009885FC0186819781A085B18589839A8347
:101CE000AB83BC8389819A81AB81BC8181309105B2
:101CF000A105B10599F08F819885FC0180819181C2
:101D0000FC01228D338D448D558D89819A81AB8163
:101D1000BC8182179307A407B50710F082E011C1B8
:101D200089819A81AB81BC810097A105B105B9F485
:101D30008F819885FC0180819181FC0180818330B5
:101D400071F48F819885FC0180819181FC0186A1CD
:101D500097A1A0A5B1A589839A83AB83BC83898110
:101D60009A81AB81BC810097A105B105D9F52F817E
:101D7000388589819A81AB81BC81F90182879387FB
:101D8000A487B5878F819885FC0180819181FC01B2
:101D90002085318589859A858217930710F082E026
:101DA000D0C08F819885FC0180819181FC0126A1A2
:101DB00037A140A551A589859A85929582958F7006
:101DC00089279F708927CC01A0E0B0E0820F931F84
:101DD000A41FB51F2F813885F90186879787A08BAF
:101DE000B18B93C08F819885FC0180819181FC012A
:101DF0008281882F90E082959295907F9827807FAE
:101E000098278D839E8349C08F819885FC018081AE
:101E1000918129813A814B815C81BA01A9010E949B
:101E2000AF08DC01CB0189839A83AB83BC838981B2
:101E30009A81AB81BC818F3FFFEF9F07FFEFAF0718
:101E4000FFEFBF0711F481E07CC089819A81AB81EB
:101E5000BC8182309105A105B10598F08F819885EC
:101E6000FC0180819181FC01228D338D448D558D43
:101E700089819A81AB81BC8182179307A407B5073A
:101E800010F082E05EC029853A858D819E81A9018E
:101E9000481B590BCA0189879A8729853A858D8104
:101EA0009E812817390708F0AFCF2F8138858981A7
:101EB0009A81AB81BC81F90182879387A487B5871A
:101EC0008F819885FC018081918129813A814B81A4
:101ED0005C81BA01A9010E9459089B01AC01898566
:101EE0009A85929582958F7089279F708927CC015A
:101EF000A0E0B0E0820F931FA41FB51F2F8138858B
:101F0000F90186879787A08BB18B8F819885FC011B
:101F1000808191819C012E5C3F4F89859A858F70CD
:101F20009070880F991F82959295907F9827807F57
:101F30009827280F391F8F819885FC01228B338BBE
:101F400080E02A96CDBFDEBFCF91DF910895EF925A
:101F5000FF920F931F93DF93CF93CDB7DEB72B97ED
:101F6000CDBFDEBF888799876A877B8788859985FB
:101F7000FC018481958101968E839F838E819F8150
:101F8000009759F088859985FC0186859785A089F9
:101F9000B1890097A105B10511F484E09CC18E813F
:101FA0009F818F709070009709F072C18885998524
:101FB000FC0186859785A089B1890196A11DB11D77
:101FC00028853985F90186879787A08BB18B88850D
:101FD0009985FC0182859385A485B5850097A10527
:101FE000B10581F488859985FC0180819181FC018E
:101FF000208531858E819F818217930708F448C11F
:1020000084E069C18E819F819C01329522952F7059
:1020100023273F70232788859985FC018081918142
:10202000FC018281882F90E00197822393230097FF
:1020300009F02EC188859985FC01808191812885D0
:102040003985F9012285338544855585BA01A90171
:102050000E94AF08DC01CB0189839A83AB83BC83E8
:1020600089819A81AB81BC8182309105A105B1053E
:1020700010F482E030C189819A81AB81BC818F3FAD
:10208000FFEF9F07FFEFAF07FFEFBF0711F481E0FE
:1020900022C188859985FC0180819181FC01228D76
:1020A000338D448D558D89819A81AB81BC81821796
:1020B0009307A407B50708F4CAC08A859B850097D3
:1020C00011F484E008C188859985FC0180819181A3
:1020D00028853985F9012285338544855585BA01DE
:1020E000A9010E94430CDC01CB0189839A83AB8355
:1020F000BC8389819A81AB81BC810097A105B10520
:1021000011F487E0E8C089819A81AB81BC8181307C
:102110009105A105B10511F482E0DDC089819A81A4
:10212000AB81BC818F3FFFEF9F07FFEFAF07FFEF52
:10213000BF0711F481E0CFC088859985FC018081BB
:10214000918140E050E0BA010E94DF06882311F03F
:1021500081E0C1C088859985FC0180819181C2960A
:1021600060E070E040E052E00E9432068885998588
:10217000FC010081118188859985FC018081918114
:1021800029813A814B815C81BA01A9010E945908D9
:10219000DC01CB01F80186A797A7A0ABB1AB1D82EC
:1021A0002BC088859985FC018081918121E0FC010B
:1021B000248388859985FC018081918140E050E0ED
:1021C000BA010E94DF06882311F081E084C088856F
:1021D0009985FC0120813181F90186A597A5A0A9E7
:1021E000B1A90196A11DB11DF90186A797A7A0ABC2
:1021F000B1AB8D818F5F8D8388859985FC0180814E
:102200009181FC0192818D81891758F28885998589
:10221000FC016081718188859985FC0180819181B3
:10222000FC0126A537A540A951A98D81882F90E0F2
:10223000A0E0B0E079018A01E81AF90A0A0B1B0B49
:10224000D801C701FB0186A797A7A0ABB1AB288532
:10225000398589819A81AB81BC81F9018287938715
:10226000A487B58788859985FC0180819181298122
:102270003A814B815C81BA01A9010E945908DC01B5
:10228000CB0128853985F90186879787A08BB18B8B
:10229000888599852E813F81FC012483358388853B
:1022A0009985FC01808191819C012E5C3F4F8E813C
:1022B0009F818F709070880F991F82959295907F63
:1022C0009827807F9827280F391F88859985FC01DA
:1022D000228B338B80E02B96CDBFDEBFCF91DF9179
:1022E0001F910F91FF90EF900895DF93CF93CDB79B
:1022F000DEB72897CDBFDEBF8D839E836F8378873F
:102300008F8198854A96FC0180819181CC01A0E063
:10231000B0E089839A83AB83BC838D819E81FC016D
:1023200080818330C1F48F8198854496FC0180813F
:102330009181CC01A0E0B0E0DC01992788272981B8
:102340003A814B815C81822B932BA42BB52B898303
:102350009A83AB83BC8389819A81AB81BC81BC01A8
:10236000CD012896CDBFDEBFCF91DF910895DF93D9
:10237000CF9300D000D0CDB7DEB789839A834B834B
:102380005C836D837E8389819A814A962B813C810F
:10239000FC012083318389819A819C012C5E3F4F0F
:1023A0008B819C81AD81BE81CD01AA27BB27F9011C
:1023B000808391832696CDBFDEBFCF91DF910895B4
:1023C000DF93CF9300D000D0CDB7DEB78D839E834F
:1023D0008D819E8160E070E00E94550E8983898125
:1023E000882311F089814FC08D819E81FC018081FD
:1023F00091812D813E81F90126853785408951895A
:10240000BA01A9010E94DF06898389818823B9F571
:102410008D819E81FC01828993898A839B838A8135
:102420009B81FC0180818C838C81882319F484E05A
:10243000898328C08A819B810B96FC018081882F2B
:1024400090E088709070009771F48D819E81FC01FE
:10245000248935898A819B81B9014BE050E00E9433
:102460006106009771F08D819E8160E070E00E94AE
:10247000A70F89838981882309F4B6CF03C00000A0
:1024800001C0000089812696CDBFDEBFCF91DF91CC
:102490000895DF93CF9300D000D0CDB7DEB78D8302
:1024A0009E8384E089833EC08D819E81FC01808172
:1024B00091812D813E81F901268537854089518999
:1024C000BA01A9010E94DF06898389818823B9F5B1
:1024D0008D819E81FC01828993898A839B838A8175
:1024E0009B81FC0180818C838C81882319F484E09A
:1024F00089832AC08C81853E59F08A819B810B9605
:10250000FC018081882F90E0887090700097C9F05E
:102510008D819E8160E070E00E94A70F8983898190
:10252000882389F48D819E81FC0186859785A08909
:10253000B1890097A105B10509F0B6CF05C000002B
:1025400003C0000001C000008981882339F08D811B
:102550009E81FC0116861786108A118A898126962B
:10256000CDBFDEBFCF91DF910895DF93CF9300D031
:1025700000D0CDB7DEB78D839E838D819E8160E0D4
:1025800070E00E94550E89838981882371F58D81C1
:102590009E81FC01808191812D813E81F9012685FA
:1025A000378540895189BA01A9010E94DF068983D4
:1025B00089818823C9F48D819E81FC018289938958
:1025C000FC0180818A838A81853E79F08A81882313
:1025D00061F08D819E8161E070E00E94A70F898388
:1025E00089818823A1F201C0000089818823B9F57F
:1025F0008D819E81FC01808191812D813E81F90137
:102600002685378540895189BA01A9010E94DF06D4
:1026100089838981882319F58D819E81FC018289B6
:1026200093898B839C838B819C8160E070E040E286
:1026300050E00E9432068D819E81FC0124893589FB
:102640008B819C81B9014BE050E00E94D8058D81BF
:102650009E81FC018081918121E0FC01248389819C
:102660002696CDBFDEBFCF91DF910895DF93CF9344
:1026700000D0CDB7DEB78A839B838A819B81FC0122
:10268000248135818A819B81B9010E94550E8983FD
:102690008981882321F58A819B81FC018081918138
:1026A0002A813B81F9012685378540895189BA0104
:1026B000A9010E94DF0689838981882381F48A81A8
:1026C0009B81FC018289938925EEFC0120838A810C
:1026D0009B81FC018081918121E0FC01248389811F
:1026E0002396CDBFDEBFCF91DF910895DF93CF93C7
:1026F000CDB7DEB76097CDBFDEBF8D879E876F8772
:10270000788B8F859889FC018081918189879A8750
:1027100005C089859A85019689879A8789859A85D2
:10272000FC0180818F32A9F389859A85FC01808123
:102730008C3579F38D859E85FC01848995898B87FD
:102740009C878B859C8560E270E04BE050E00E94A6
:10275000320619821F8218868F8198858D839E8309
:1027600088E090E08B839C8329853A858D819E81CA
:10277000820F931FFC0180818E3209F048C02985A9
:102780003A858D819E81820F931FFC0180818A830F
:102790008D819E8101968D839E838A818E32A1F4E4
:1027A0008D819E818330910578F42B853C858F81C6
:1027B0009885820F931F2A81FC0120838F81988541
:1027C00001968F839887DBCF8A818F3241F08A818F
:1027D0008C3529F08A81813210F086E0D6C02985B7
:1027E0003A858D819E81280F391F8F859889FC013C
:1027F000208331838B859C850B962A81213210F4AE
:1028000024E201C020E2FC01208380E0BEC02985D3
:102810003A858D819E81820F931FFC0180818A837E
:102820008D819E8101968D839E838A81813208F4F9
:1028300063C08A818F3209F45FC08A818C3509F4C4
:102840005BC08A818E3239F02F8138858B819C81E3
:1028500028173907C0F08B819C818830910519F4C5
:102860008A818E3211F086E090C088E090E08F83FC
:1028700098878BE090E08B839C838981880F880FF9
:1028800089830000C4CF8A8188232CF489818360E6
:10289000898386E07AC08A81282F30E080E090E248
:1028A000B9010E94B206009711F086E06EC08A81DD
:1028B000813438F08A818B3520F489818260898364
:1028C0000CC08A81813648F08A818B3730F4898147
:1028D000816089838A8180528A832B853C858F81A0
:1028E0009885820F931F2A81FC0120838F81988510
:1028F00001968F8398878BCF29853A858D819E811C
:10290000280F391F8F859889FC01208331838A81A4
:10291000813210F484E001C080E08A838F81988541
:10292000009711F486E031C08B859C85FC01808185
:10293000853E29F48B859C8525E0FC0120838B81D5
:102940009C818830910521F48981880F880F8983C3
:102950008981882F90E0837090708130910519F4FF
:102960008A8180618A838981882F90E08C70907041
:102970008430910519F48A8188608A838B859C85CF
:102980000B962A81FC01208380E06096CDBFDEBFDC
:10299000CF91DF910895DF93CF93CDB7DEB72C971A
:1029A000CDBFDEBF89879A876B877C878B859C85A7
:1029B00009968B839C8389859A85FC0186859785FA
:1029C000A089B1890097A105B10509F49DC0898549
:1029D0009A85FC01828993898E839F838E819F8152
:1029E0000C96FC018081888719821A8220C02E8172
:1029F0003F8189819A81820F931FFC0180818D83A1
:102A00008D818032D1F08D81853011F485EE8D83FA
:102A10008B819C812D81FC0120838B819C8101967F
:102A20008B839C8389819A81019689839A8389818A
:102A30009A8188309105D8F201C000008E819F8173
:102A40000896FC018081803289F18B819C812EE285
:102A5000FC0120838B819C8101968B839C8388E081
:102A600090E089839A831BC02E813F8189819A815E
:102A7000820F931FFC0180818D838D818032A9F0AC
:102A80008B819C812D81FC0120838B819C8101960F
:102A90008B839C8389819A81019689839A8389811A
:102AA0009A818B30910500F301C000008E819F81D7
:102AB0000B96FC0120818B859C85FC0120878E81F3
:102AC0009F814C96FC0180819181A281B3812B85ED
:102AD0003C85F90180839183A283B3838E819F819A
:102AE0004896FC01208131818B859C85FC012483E3
:102AF00035838E819F814696FC01208131818B85B3
:102B00009C85FC01268337838B819C81FC0110828C
:102B10002C96CDBFDEBFCF91DF910895DF93CF9389
:102B2000CDB7DEB72897CDBFDEBF8D839E836F8381
:102B300078878F819885FC0180818F3231F08F8179
:102B40009885FC0180818C3569F48F819885019688
:102B50008F8398878D819E81FC0116821782108653
:102B6000118611C08D819E81FC0180819181FC01C3
:102B700086899789A08DB18D2D813E81F90186834B
:102B80009783A087B1878F819885FC0180818032EF
:102B900068F48D819E8160E070E00E94550E89830B
:102BA0008D819E81FC01128A138A83C08D819E8152
:102BB0009E01295F3F4FB9010E9476138983898165
:102BC000882309F06DC08D819E810E94E011898368
:102BD0008D819E81FC01848995890B96FC01808101
:102BE0008A838981882361F18981843009F05AC000
:102BF0008A81882F90E0807290700097B9F08D8163
:102C00009E81FC0116821782108611868D819E811D
:102C1000FC01128A138A19828A81882F90E08470BD
:102C20009070009709F040C00000C0CF8A81882FC3
:102C300090E0847090700097C9F585E0898339C071
:102C40008A81882F90E084709070009789F58D813B
:102C50009E81FC01828993898B839C838B819C81DB
:102C60000B96FC018081882F90E080719070009716
:102C700019F485E089831DC08D819E81FC018081CE
:102C800091812B813C81B9010E947511DC01CB013E
:102C90002D813E81F90186839783A087B18786CFF6
:102CA000000007C0000005C0000003C0000001C014
:102CB000000089812896CDBFDEBFCF91DF910895B6
:102CC0000F93DF93CF9300D000D0CDB7DEB78983C9
:102CD0009A834B835C836D837E8389819A81DC0137
:102CE0001196EC9189819A81BC016E5C7F4F2B819A
:102CF0003C814D815E818E2F01E00E9475468823C4
:102D000011F083E038C089819A81C29682509E4F2B
:102D1000FC0180819181FAEA85359F0711F082E0FC
:102D20002AC089819A81C296C696FC0180819181D0
:102D3000A281B381B0708634F1E49F07F4E5AF0758
:102D4000F0E0BF0711F480E016C089819A81C29635
:102D50008E5A9F4FFC0180819181A281B381B07016
:102D60008634F1E49F07F4E5AF07F0E0BF0711F404
:102D700080E001C081E02696CDBFDEBFCF91DF911C
:102D80000F910895EF92FF920F931F93DF93CF93CC
:102D9000CDB7DEB7AB97CDBFDEBF8FA398A769A72E
:102DA0007AA74BA78FA198A5DC018D919C911197D3
:102DB0008D8B9E8B8D899E89FC018081882F90E070
:102DC000C0978B839C838B819C818A309105A0F472
:102DD0008D899E890196DC018C918A3369F48D89F5
:102DE0009E8902968D8B9E8B8FA198A52D893E89F9
:102DF000FC012083318306C08091EA20882F90E077
:102E00008B839C8389A59AA5DC011D921C92119746
:102E10008B819C818230910510F08BE0ADC38B815A
:102E20009C81880F991F8C519F4DFC01808191815D
:102E30008F8B988F8F89988D009711F48CE09CC3AD
:102E400089A59AA52F89388DDC012D933C93119784
:102E50008F89988DFC0180818823E9F08F89988D76
:102E6000DC0111968C910E946446898F898D882F90
:102E700090E081709070009771F48BA5882349F0E1
:102E8000898D882F90E084709070009711F08AE00F
:102E900073C380E071C38F89988DFC0110822B81F0
:102EA0008F89988DDC0111962C938F89988DFC0168
:102EB00081810E947945898F898D882F90E081706A
:102EC0009070882311F083E057C38BA5882349F0C5
:102ED000898D882F90E084709070009711F08AE0BF
:102EE0004BC31D821E821F8218868F89988D2D816B
:102EF0003E814F815885BA01A9010E9460168983DD
:102F000089818130C9F51A828A81882319F08A81E2
:102F100081508A838F89988D9C012E5C3F4F8A81D6
:102F2000882F90E082959295907F9827807F9827B0
:102F300082549E4F820F931F8A8F9B8F8A8D9B8D09
:102F40000496DC018C918823B9F08A8D9B8D0896BC
:102F5000FC0180819181A281B3818D839E83AF83A7
:102F6000B8878F89988D2D813E814F815885BA0110
:102F7000A9010E94601689838981833011F481E060
:102F8000FBC28981882311F08DE0F6C28F89988D6C
:102F9000C2960B96DC018D919C911197B2E0803026
:102FA0009B0711F08DE0E8C28F89988DC2964696F6
:102FB000FC0180819181CC01A0E0B0E089879A87F3
:102FC000AB87BC8789859A85AB85BC850097A105B1
:102FD000B10569F48F89988DC2968496FC01808131
:102FE0009181A281B38189879A87AB87BC872F891A
:102FF000388D89859A85AB85BC85F901868F978F39
:10300000A0A3B1A38F89988D8E5B9F4FDC018C911B
:103010008C8F8F89988D2C8DFC0123838C8D813032
:1030200029F08C8D823011F08DE0A6C28C8D282F76
:1030300030E040E050E089859A85AB85BC85BC01D5
:10304000CD010E944F50DC01CB0189879A87AB8765
:10305000BC878F89988DDC01DF968C91DF978C8FF0
:103060008F89988D2C8DFC0122838C8D882359F0BB
:103070008C8D282F30E08C8D882F90E00197822353
:103080009323009711F08DE077C28F89988DC296B7
:103090004196DC012D913C918F89988DFC01208710
:1030A00031878F89988DDC0118968D919C911997A5
:1030B0008F709070009711F08DE05EC28F89988DAF
:1030C000C2964396FC0180819181CC01A0E0B0E0E2
:1030D0008D879E87AF87B88B8D859E85AF85B88994
:1030E0000097A105B10569F48F89988DC2968096E5
:1030F000FC0180819181A281B3818D879E87AF87FA
:10310000B88B8F89988DC2960E96DC018D919C911B
:1031100011978D8F9E8F8D8D9E8D009711F48DE070
:103120002BC28D8D9E8D9C0140E050E089859A8553
:10313000AB85BC85280F391F4A1F5B1F8F89988D6F
:10314000FC0180859185929582958F7089279F706B
:103150008927CC01A0E0B0E0820F931FA41FB51F08
:103160008F8F98A3A9A3BAA32D853E854F85588933
:103170008F8D98A1A9A1BAA1281739074A075B0723
:1031800010F48DE0F9C12D853E854F8558898F8DCE
:1031900098A1A9A1BAA179018A01E81AF90A0A0B32
:1031A0001B0BD801C7012F89388DF9012281222FED
:1031B00030E040E050E0BC01CD010E9481502BA3E3
:1031C0003CA34DA35EA38BA19CA1ADA1BEA1009782
:1031D000A105B10511F48DE0CFC181E089838BA1F8
:1031E0009CA1ADA1BEA1863FFFE09F07F0E0AF0725
:1031F000F0E0BF0710F082E089838BA19CA1ADA114
:10320000BEA1863F0FEF900700E0A00700E0B007E7
:1032100010F083E089838BA19CA1ADA1BEA1029691
:10322000A11DB11D2F89388DF901828F938FA48F35
:10323000B58F2D813E814F8158858F8D98A1A9A191
:10324000BAA1820F931FA41FB51F2F89388DF901D2
:1032500082A793A7A4A7B5A78D8D9E8D9C0140E062
:1032600050E08D819E81AF81B885820F931FA41F8E
:10327000B51F2F89388DF90182A393A3A4A3B5A309
:103280008981833079F58F89988DDC0118968D912D
:103290009C911997009711F08DE06EC18F89988DE0
:1032A000C2968C96FC0180819181A281B3812F8985
:1032B000388DF90186A397A3A0A7B1A78F89988D10
:1032C000FC01828D938DA48DB58D880F991FAA1F47
:1032D000BB1F880F991FAA1FBB1F898B9A8BAB8BB3
:1032E000BC8B5CC08F89988DDC0118968D919C9168
:1032F0001997009711F48DE03FC18F89988DFC01DB
:1033000022A133A144A155A189859A85AB85BC85AD
:10331000820F931FA41FB51F2F89388DF90186A333
:1033200097A3A0A7B1A78981823061F48F89988D76
:10333000FC01828D938DA48DB58D880F991FAA1FD6
:10334000BB1F28C08F89988DDC015A962D913D9125
:103350004D915C915D97DA01C901880F991FAA1FF1
:10336000BB1F820F931FA41FB51F9C01AD01569573
:103370004795379527958F89988DFC01828D938D80
:10338000A48DB58D81709070A070B070820F931F66
:10339000A41FB51F898B9A8BAB8BBC8B8F89988DA3
:1033A000DC015E962D913D914D915C9191978989BB
:1033B0009A89AB89BC8981509E4FAF4FBF4F072E72
:1033C00079E0B695A795979587957A95D1F7702D61
:1033D000281739074A075B0710F48DE0CDC02F8905
:1033E000388D8FEF9FEFDC01F90186879787A08BDF
:1033F000B18B8F89988DDC011A961D921D921D92BA
:103400001C921D978981833009F088C08F89988D1F
:10341000FC0115828F89988DC296C096DC018D9132
:103420009C919C0140E050E08D819E81AF81B885E8
:10343000820F931FA41FB51F2F89388DF901828B2E
:10344000938BA48BB58B8F89988DDC011196EC91B1
:103450008F89988DBC016E5C7F4F8F89988DDC01C0
:1034600052962D913D914D915C9155978E2F01E093
:103470000E947546882309F051C08F89988DC296A5
:1034800082509E4FFC0180819181FAEA85359F0729
:1034900009F044C08F89988DC296FC01808191818A
:1034A000A281B3818235F2E59F07F1E6AF07F1E42F
:1034B000BF07A1F58F89988DC2968C519E4FFC0154
:1034C00080819181A281B3818237F2E79F07F1E485
:1034D000AF07F1E6BF0711F58F89988DC296845129
:1034E0009E4FFC0180819181A281B3812F89388D0B
:1034F000F90182879387A487B5878F89988DC296B3
:1035000088519E4FFC0180819181A281B3812F89D6
:10351000388DF90186879787A08BB18B8F89988D1D
:103520002981DC012C938091E8209091E92001967B
:103530008093E8209093E9202091E8203091E920C1
:103540008F89988DFC01268337838F89988DDC01C4
:103550009E961D921D921D921C92D1978F89988DD7
:10356000FC0114828F89988DDC0156961D921D9264
:103570001D921C92599780E0AB96CDBFDEBFCF91D4
:10358000DF911F910F91FF90EF900895DF93CF93FC
:1035900000D00F92CDB7DEB78B839C838B819C814B
:1035A00089839A8389819A81FC0180819181009726
:1035B000C9F089819A81FC0180819181FC0180811F
:1035C000882381F089819A81FC0180819181FC01AD
:1035D0002681378189819A81FC0182819381281714
:1035E000390711F089E012C089819A81FC0180813C
:1035F0009181FC0181810E946446882F90E0817056
:103600009070882311F083E001C080E02496CDBF44
:10361000DEBFCF91DF910895DF93CF93CDB7DEB7B3
:103620002597CDBFDEBF8B836C837D838B818230FA
:1036300010F08BE029C08B81882F90E0880F991FB4
:103640008C519F4DFC018081918189839A8389816E
:103650009A81009721F089819A81FC0110828C81E6
:103660009D81009721F08C819D81FC0110828B81CE
:10367000882F90E0880F991F8C519F4D2C813D81A0
:10368000FC012083318380E02596CDBFDEBFCF9142
:10369000DF910895DF93CF93CDB7DEB7E297CDBF2B
:1036A000DEBF8EA79FA768AB79AB4AAB8EA59FA55F
:1036B000009711F489E07CC18EA59FA5FC011082C2
:1036C00011828AA98F718AAB8AA9482F4E7FCE01B9
:1036D000C0969E01245F3F4FB9010E94C2168983A4
:1036E0008981882309F063C1CE01829688A399A3BA
:1036F00028A939A9CE010C96B9010E948E1589839B
:103700008E8D9F8D8A839B838981882331F48A8162
:103710009B81009711F486E089838AA9882F90E025
:103720008C719070009709F4AFC08981882381F073
:103730008981843029F4CE010C960E94B5128983C8
:103740008AA988608AAB8E8D9F8D8A839B8317C0E0
:103750008A819B810B96FC018081882F90E081718A
:103760009070009719F087E0898309C08AA9882F93
:1037700090E084709070009711F088E089838981CF
:10378000882309F0A6C08AA9882F90E088709070DD
:10379000009709F49EC00E94414ADC01CB018C8352
:1037A0009D83AE83BF838A819B819C01225F3F4FB3
:1037B0008C819D81AE81BF81F90180839183A28339
:1037C000B3838A819B810B96FC0110828A819B8145
:1037D0004C96FC0110821182128213828C859D8589
:1037E0002A813B81B9010E947511DC01CB018887D8
:1037F0009987AA87BB878A819B8140E050E0BA0104
:103800000E94B7118C859D8521E0FC012483888569
:103810009985AA85BB850097A105B10509F459C012
:103820008C859D85FC0186A597A5A0A9B1A98C834F
:103830009D83AE83BF838C859D85288539854A8588
:103840005B85BA01A9010E94850B89838981882340
:1038500009F03FC02C853D8588859985AA85BB8563
:103860000197A109B109F90182879387A487B587D8
:103870008C859D852C813D814E815F81BA01A90196
:103880000E94DF06898325C08981882311F58A81FA
:103890009B810B96FC018081882F90E08071907055
:1038A000009719F084E0898314C08AA9882F90E0DA
:1038B00082709070009769F08A819B810B96FC0161
:1038C0008081882F90E081709070882311F087E0CC
:1038D000898389818823F9F48AA9882F90E08870E8
:1038E0009070009719F08AA980628AAB8C859D85BB
:1038F000FC0186A597A5A0A9B1A92EA53FA5F90110
:10390000828F938FA48FB58F8EA59FA52A813B812F
:10391000FC01268F378F8981882309F048C08EA546
:103920009FA52AA9FC0124838C859D852A813B8142
:10393000B9010E947511DC01CB012EA53FA5F9014B
:1039400086879787A08BB18B8A819B814C96FC01DF
:1039500080819181A281B3812EA53FA5F901828743
:103960009387A487B5878EA59FA5FC011682178231
:10397000108611868EA59FA5FC01168A178A108EC7
:10398000118E8EA59FA5FC0110A211A22C853D854C
:103990008EA59FA5FC01208331838C859D85FC012C
:1039A000268137818EA59FA5FC01228333838981DF
:1039B000E296CDBFDEBFCF91DF910895EF92FF92E7
:1039C0000F931F93DF93CF93CDB7DEB76C97CDBF27
:1039D000DEBF8D8B9E8B6F8B788F498F5A8F2B8F8D
:1039E0003C8F8F89988D89879A878B8D9C8DDC0180
:1039F0001D921C928D899E890E94C61A8B878B8589
:103A0000882311F08B85D1C28D899E89FC01848128
:103A1000882314F482E0C9C28D899E89DC01149642
:103A20008C911497882F90E081709070009711F41A
:103A300087E0BBC28D899E89FC0122853385448540
:103A400055858D899E89FC0186819781A085B185E8
:103A500079018A01E81AF90A0A0B1B0BD801C70180
:103A60008C879D87AE87BF87898D9A8D9C0140E0AA
:103A700050E08C859D85AE85BF8582179307A4078E
:103A8000B50708F08CC28C859D85898F9A8F87C277
:103A90008D899E89FC0186819781A085B185917071
:103AA000A070B0700097A105B10509F00BC28D8917
:103AB0009E89FC0186819781A085B185072E79E0DA
:103AC000B695A795979587957A95D1F7702D282F5C
:103AD0008D899E89DC018D919C911197FC018281D9
:103AE00081508223888B8889882309F086C08D893C
:103AF0009E89FC0186819781A085B1850097A105EB
:103B0000B10561F48D899E89FC0186859785A08920
:103B1000B18989839A83AB83BC8333C08D899E89A5
:103B2000DC0190968D919C9191970097A1F08D89E1
:103B30009E89FC0126813781408551858D899E892A
:103B4000BA01A9010E94BD0DDC01CB0189839A83D2
:103B5000AB83BC8316C08D899E89DC018D919C91BD
:103B60002D893E89F9012289338944895589BA0111
:103B7000A9010E94AF08DC01CB0189839A83AB8342
:103B8000BC8389819A81AB81BC8182309105A1057A
:103B9000B10570F48D899E89DC0114968C9114977F
:103BA000282F20688D899E89FC01248382E0FDC135
:103BB00089819A81AB81BC818F3FFFEF9F07FFEF27
:103BC000AF07FFEFBF0771F48D899E89DC01149662
:103BD0008C911497282F20688D899E89FC0124835D
:103BE00081E0E3C12D893E8989819A81AB81BC81C5
:103BF000F901828B938BA48BB58B8D899E89DC0117
:103C00008D919C912D893E89F901228933894489BE
:103C10005589BA01A9010E945908DC01CB01898BA1
:103C20009A8BAB8BBC8B89899A89AB89BC890097AD
:103C3000A105B10571F48D899E89DC0114968C91E2
:103C40001497282F20688D899E89FC01248382E0A7
:103C5000ACC18889882F90E0A0E0B0E029893A893A
:103C60004B895C89820F931FA41FB51F898B9A8B88
:103C7000AB8BBC8B898D9A8D892F992786958F83E5
:103C800098878F819885009709F49AC08889282F92
:103C900030E08F819885280F391F8D899E89DC013E
:103CA0008D919C911197FC018281882F90E0821761
:103CB000930790F48D899E89DC018D919C91FC0184
:103CC0008281282F30E08889882F90E07901E81AD6
:103CD000F90AC7018F8398878D899E89DC018D91B0
:103CE0009C91FC0181819F8169857A8529893A8926
:103CF0004B895C89092F0E947546882371F08D8954
:103D00009E89DC0114968C911497282F20688D8948
:103D10009E89FC01248381E048C18D899E89DC0154
:103D200014968C911497882F90E08074907000976F
:103D300009F43EC08D899E89FC0126893789408D12
:103D4000518D89899A89AB89BC89281B390B4A0B0B
:103D50005B0B8F819885CC01A0E0B0E02817390774
:103D60004A075B0728F58D899E89DC0156962D91BF
:103D70003D914D915C91599789899A89AB89BC890C
:103D800079018A01E81AF90A0A0B1B0BD801C7014D
:103D9000982F8827990F29853A85820F931F2D899F
:103DA0003E892E5D3F4FB90140E052E00E94D805A8
:103DB0008F819885982F8827990F8D839E83B5C012
:103DC0008D899E89DC0156962D913D914D915C9196
:103DD000599789899A89AB89BC89281739074A0775
:103DE0005B0709F464C08D899E89FC018481882F5A
:103DF00090E0807490700097A9F18D899E89DC0114
:103E00008D919C91DC011196EC918D899E89BC016C
:103E10006E5D7F4F8D899E89DC0156962D913D9177
:103E20004D915C9159978E2F01E00E94FD468823A9
:103E300071F08D899E89FC018481282F20688D89ED
:103E40009E89DC0114962C93149781E0AEC08D8975
:103E50009E89FC018481282F2F7B8D899E89DC011E
:103E600014962C938D899E89FC0180819181DC01BF
:103E70001196EC918D899E89BC016E5D7F4F2989D9
:103E80003A894B895C898E2F01E00E947546882310
:103E900071F08D899E89FC018481282F20688D898D
:103EA0009E89DC0114962C93149781E07EC02D89A5
:103EB0003E8989899A89AB89BC89F901868B978B60
:103EC000A08FB18F8D899E89FC0186819781A08505
:103ED000B185917020E032E07901E81AF90AC70152
:103EE0008D839E832D813E81898D9A8D82179307C4
:103EF00020F4898D9A8D8D839E838D899E899C0166
:103F00002E5D3F4F8D899E89FC0186819781A0851A
:103F1000B1859170A901480F591F89859A852D8116
:103F20003E81BA01A9010E94D80529853A858D8173
:103F30009E81820F931F89879A878D899E89DC01D4
:103F400016962D913D914D915C9119978D819E8191
:103F5000CC01A0E0B0E0820F931FA41FB51F2D89F4
:103F60003E89F90186839783A087B1878B8D9C8DCD
:103F7000DC012D913C9111978D819E81280F391F75
:103F80008B8D9C8DFC0120833183298D3A8D8D8111
:103F90009E817901E81AF90AC701898F9A8F898D64
:103FA0009A8D009709F074CD80E06C96CDBFDEBF8E
:103FB000CF91DF911F910F91FF90EF900895EF92B5
:103FC000FF920F931F93DF93CF93CDB7DEB7689720
:103FD000CDBFDEBF898B9A8B6B8B7C8B4D8B5E8BC1
:103FE0002F8B388F8B899C8989879A878F89988DA9
:103FF000DC011D921C9289899A890E94C61A8B87BE
:104000008B85882311F08B8544C389899A89FC01AB
:104010008481882314F482E03CC389899A89DC0175
:1040200014968C911497882F90E08270907000976E
:1040300011F487E02EC389899A89FC012285338592
:10404000448555858D899E89CC01A0E0B0E0280F7C
:10405000391F4A1F5B1F89899A89FC0182859385D4
:10406000A485B585281739074A075B0708F0DAC227
:104070001D8A1E8AD7C289899A89FC018681978107
:10408000A085B1859170A070B0700097A105B105B1
:1040900009F051C289899A89FC0186819781A0859E
:1040A000B185072E79E0B695A795979587957A956E
:1040B000D1F7702D282F89899A89DC018D919C91E7
:1040C0001197FC018281815082238C878C85882303
:1040D00009F0B3C089899A89FC0186819781A085FE
:1040E000B1850097A105B10581F589899A89FC01FF
:1040F00086859785A089B18989839A83AB83BC83A0
:1041000089819A81AB81BC810097A105B10509F035
:104110004FC089899A89DC018D919C9140E050E0E3
:10412000BA010E94430CDC01CB0189839A83AB83E3
:10413000BC8329893A8989819A81AB81BC81F90143
:1041400086879787A08BB18B33C089899A89DC01D8
:1041500090968D919C9191970097A1F089899A8969
:10416000FC01268137814085518589899A89BA0168
:10417000A9010E94BD0DDC01CB0189839A83AB8329
:10418000BC8316C089899A89DC018D919C9129890B
:104190003A89F9012289338944895589BA01A901EB
:1041A0000E94430CDC01CB0189839A83AB83BC83DF
:1041B00089819A81AB81BC810097A105B10509F481
:1041C00037C289819A81AB81BC8181309105A1057B
:1041D000B10571F489899A89DC0114968C91149740
:1041E000282F206889899A89FC01248382E051C2A2
:1041F00089819A81AB81BC818F3FFFEF9F07FFEFE1
:10420000AF07FFEFBF0771F489899A89DC01149623
:104210008C911497282F206889899A89FC0124831E
:1042200081E037C229893A8989819A81AB81BC8131
:10423000F901828B938BA48BB58B89899A89DC01D8
:1042400014968C911497882F90E08074907000974A
:10425000A9F189899A89FC0180819181DC011196FB
:10426000EC9189899A89BC016E5D7F4F89899A8911
:10427000DC0156962D913D914D915C9159978E2F71
:1042800001E00E94FD46882371F089899A89FC012A
:104290008481282F206889899A89DC0114962C93BF
:1042A000149781E0F6C189899A89FC018481282FBD
:1042B0002F7B89899A89DC0114962C9389899A89A4
:1042C000FC018081918129893A89D90152962D91E9
:1042D0003D914D915C915597BA01A9010E945908F1
:1042E000DC01CB018D879E87AF87B88B8D859E853E
:1042F000AF85B8890097A105B10571F489899A89BC
:10430000FC018481282F206889899A89DC01149610
:104310002C93149782E0BDC18C85882F90E0A0E09B
:10432000B0E02D853E854F855889820F931FA41FCD
:10433000B51F8D879E87AF87B88B8D899E89892F02
:10434000992786958F8398878F819885009709F4A0
:104350009DC08C85282F30E08F819885280F391FCC
:1043600089899A89FC0180819181DC0112968C9166
:104370001297882F90E08217930798F489899A8979
:10438000FC0180819181DC0112968C91282F30E014
:104390008C85882F90E0F901E81BF90BCF018F8302
:1043A000988789899A89DC018D919C91FC01818192
:1043B0009F8169857A852D853E854F855889092F8E
:1043C0000E94FD46882371F089899A89DC01149640
:1043D0008C911497282F206889899A89FC0124835D
:1043E00081E057C189899A89DC0156962D913D91CA
:1043F0004D915C9159978D859E85AF85B889281B15
:10440000390B4A0B5B0B8F819885CC01A0E0B0E0A3
:10441000281739074A075B0788F589899A89BC01FB
:104420006E5D7F4F89899A89FC0126893789408D85
:10443000518D8D859E85AF85B88979018A01E81AED
:10444000F90A0A0B1B0BD801C701982F8827990F6F
:1044500029853A85280F391FCB01B90140E052E088
:104460000E94D80589899A89DC0114968C91149749
:10447000282F2F7B89899A89FC0124838F81988535
:10448000982F8827990F8D839E8392C089899A8956
:10449000DC0156962D913D914D915C9159978D85FA
:1044A0009E85AF85B889281739074A075B07C1F190
:1044B00089899A89FC0126813781408551858989BE
:1044C0009A89FC0182859385A485B58528173907CB
:1044D0004A075B0728F589899A89DC018D919C91AF
:1044E000DC011196EC9189899A89BC016E5D7F4F40
:1044F0002D853E854F8558898E2F01E00E94754697
:10450000882371F089899A89FC018481282F206889
:1045100089899A89DC0114962C93149781E0B9C09B
:1045200029893A898D859E85AF85B889F901868B61
:10453000978BA08FB18F89899A89FC018681978199
:10454000A085B185917020E032E07901E81AF90A7E
:10455000C7018D839E832D813E818D899E8982171F
:10456000930720F48D899E898D839E8389899A89FA
:104570009C012E5D3F4F89899A89FC018681978134
:10458000A085B1859170820F931F49855A852D8131
:104590003E81BA01A9010E94D80589899A89DC0166
:1045A00014968C91282F206489899A89FC01248390
:1045B00029853A858D819E81820F931F89879A87ED
:1045C00089899A89DC0116962D913D914D915C91D6
:1045D00019978D819E81CC01A0E0B0E0820F931FDE
:1045E000A41FB51F29893A89F90186839783A0877B
:1045F000B1878F89988DDC012D913C9111978D8128
:104600009E81280F391F8F89988DFC01208331836B
:104610002D893E898D819E817901E81AF90AC701A9
:104620008D8B9E8B8D899E89009709F024CD01C0CA
:10463000000089899A89DC0116962D913D914D9152
:104640005C91199789899A89FC0182859385A48553
:10465000B58582179307A407B50770F489899A89ED
:10466000FC0186819781A085B18529893A89F90164
:1046700082879387A487B58789899A89DC011496F4
:104680008C911497282F206289899A89FC012483B0
:1046900080E06896CDBFDEBFCF91DF911F910F9173
:1046A000FF90EF9008950F93DF93CF93CDB7DEB7D0
:1046B0002997CDBFDEBF88879987888599850E9415
:1046C000C61A89838981882309F0C2C088859985A3
:1046D000DC0114968C911497882F90E08072907072
:1046E000009709F4B5C088859985FC018481882FDD
:1046F00090E080749070009749F188859985DC017D
:104700008D919C91DC011196EC9188859985BC0175
:104710006E5D7F4F88859985DC0156962D913D9180
:104720004D915C9159978E2F01E00E94FD468823A0
:1047300011F081E08EC088859985FC018481282F45
:104740002F7B88859985DC0114962C938885998523
:10475000FC018081918128853985D9015A962D9156
:104760003D914D915C915D97BA01A9010E94DF06D0
:1047700089838981882309F06BC088859985FC012C
:10478000868D978D8A839B838A819B810B962A8154
:104790003B81255F3F4FD9012C912062FC01208392
:1047A0008A819B819C01245E3F4F88859985FC010D
:1047B00082859385A485B585F90180839183A28341
:1047C000B38388859985DC011E962D913D914D918D
:1047D0005C9151978A819B81BA01A9010E94B7110E
:1047E0000E94414ADC01CB018C839D83AE83BF8351
:1047F0008A819B819C012A5E3F4F8C819D81AE8185
:10480000BF81F90180839183A283B3838A819B81D5
:104810004296DC011D921C9288859985FC01848159
:10482000282F2F7D88859985DC0114962C93888507
:104830009985FC018081918121E0DC0114962C9303
:1048400088859985FC01808191810E94AA078983CE
:1048500089812996CDBFDEBFCF91DF910F91089559
:10486000DF93CF9300D0CDB7DEB78A839B838A8155
:104870009B810E94532389838981882329F48A811B
:104880009B81FC011082118289812396CDBFDEBFFE
:10489000CF91DF910895DF93CF930F92CDB7DEB71D
:1048A00089838981823010F08BE004C089818093F4
:1048B000EA2080E00F90CF91DF9108950F931F932E
:1048C000DF93CF93CDB7DEB7A597CDBFDEBF8CA367
:1048D0009DA3CE0184969E012E5F3F4FB90140E01B
:1048E0000E94C21689838981882309F042C0CE01C3
:1048F00048968E8B9F8B2CA13DA1CE010296B901CB
:104900000E948E1589838981882371F58C899D8900
:10491000009761F42A813B8188859985AA85BB85AA
:10492000F901868B978BA08FB18F1EC08C899D89D2
:104930000B96FC018081882F90E080719070009729
:1049400089F00A811B818A819B812C893D89B9016B
:104950000E947511DC01CB01F801868B978BA08F2B
:10496000B18F02C085E089838981843011F485E0AC
:1049700089838981A596CDBFDEBFCF91DF911F913D
:104980000F910895DF93CF93CDB7DEB7C754D040D2
:10499000CDBFDEBF9E012C5B3F4FF9018083918329
:1049A000CE018A5B9F4FFC0160837183CE018C5BDB
:1049B0009F4FFC0180819181FC011082CE018C5BB4
:1049C0009F4F9E01245F3F4FB90140E00E94C216F5
:1049D00089838981882309F051C1CE01C89688A3B3
:1049E00099A3CE018A5B9F4FFC01808191818A83CC
:1049F0009B838C859D85FC0186899789A08DB18DCF
:104A00008A8B9B8BAC8BBD8BBEC0CE010C9661E0BC
:104A100070E00E94550E89838981882309F0C5C002
:104A2000CE010C960E94491289838981882309F05E
:104A3000BEC08C859D852E8D3F8DB9010E9475115C
:104A4000DC01CB018A8B9B8BAC8BBD8BCE010C9692
:104A500060E070E00E94550E89838981882309F007
:104A6000A8C0CE010C960E944912898389818823AF
:104A7000E9F48C859D852E8D3F8DB9010E947511BD
:104A80009B01AC0188859985AA85BB8528173907C4
:104A90004A075B0769F0CE010C9660E070E00E9467
:104AA000A70F898389818823E1F203C0000001C038
:104AB00000008981843011F482E089838981882310
:104AC00009F079C0CE010C969E012E5D3F4FB901D1
:104AD0000E94CB14CE01829609968E839F831C82FE
:104AE0001D8205C08C819D8101968C839D832E81C2
:104AF0003F818C819D81820F931FFC0180818823DF
:104B000089F78C819D819C012D5F3F4F8A819B811C
:104B10008217930710F581E189834EC0CE018C5B2B
:104B20009F4FFC01208131818A819B8101978A837B
:104B30009B838A819B81820F931F2C813D81215011
:104B400030402C833D834E815F812C813D81240F39
:104B5000351FF9012081FC0120838C819D81009704
:104B6000E9F6CE018C5B9F4FFC01208131818A8167
:104B70009B8101978A839B838A819B81820F931FEC
:104B80002FE2FC0120838A899B89AC89BD898887B3
:104B90009987AA87BB8788859985AA85BB85009751
:104BA000A105B10509F031CF07C0000005C0000024
:104BB00003C0000001C00000CE018C5B9F4FFC01D0
:104BC000808191818E839F838981882309F052C0DF
:104BD0008091EA20282F205D8E819F81FC01208317
:104BE0008E819F8101968E839F838E819F812AE390
:104BF000FC0120838E819F8101968E839F83CE014D
:104C00008A5B9F4F2A813B81FC018081918128171B
:104C1000390759F48E819F812FE2FC0120838E8118
:104C20009F8101968E839F8325C0CE018C5B9F4F11
:104C3000FC01208131818A819B81820F931FFC01BD
:104C400020818E819F81FC0120838E819F8101962E
:104C50008E839F838A819B8101968A839B83CE0169
:104C60008A5B9F4F2A813B81FC01808191812817BB
:104C70003907D8F28E819F81FC0110828981C95B3E
:104C8000DF4FCDBFDEBFCF91DF910895EF92FF924E
:104C90000F931F93DF93CF93CDB7DEB7E597CDBFCB
:104CA000DEBF88AB99AB4AAB5BAB6CAB7DAB88A985
:104CB00099A90E94C61A89838981882311F0898164
:104CC000B4C588A999A9DC0114968C9114978823FE
:104CD00014F482E0AAC588A999A9FC0180A191A138
:104CE000009709F464C28AA99BA9ACA9BDA98F3F0A
:104CF000FFEF9F07FFEFAF07FFEFBF0709F021C1ED
:104D000088A999A9DC0190968D919C9191978E87A5
:104D10009F878E859F85FC0180819181A281B381CF
:104D2000888F998FAA8FBB8F8E859F8504968E87DB
:104D30009F8782E090E0A0E0B0E08A879B87AC8705
:104D4000BD8788A999A9FC0186859785A089B18925
:104D50008A839B83AC83BD838A819B81AC81BD8127
:104D60000097A105B10509F4C3C08A819B81AC817C
:104D7000BD818C8F9D8FAE8FBF8F1E821F82188644
:104D800019868A859B85AC85BD850296A11DB11DBE
:104D90008A879B87AC87BD878A819B81AC81BD81D7
:104DA00088A399A3AAA3BBA38E819F81A885B98557
:104DB0000196A11DB11D8E839F83A887B98788A9FD
:104DC00099A9DC018D919C912A813B814C815D8167
:104DD000BA01A9010E94AF08DC01CB018A839B8341
:104DE000AC83BD838A819B81AC81BD81823091057A
:104DF000A105B10570F488A999A9FC018481282F27
:104E0000206888A999A9DC0114962C93149782E054
:104E10000CC58A819B81AC81BD818F3FEFEF9E07DE
:104E2000EFEFAE07EFEFBE0771F488A999A9DC0197
:104E300014968C911497282F206888A999A9FC01B1
:104E4000248381E0F2C488A199A1AAA1BBA19C01FD
:104E5000AD012F5F3F4F4F4F5F4F8A819B81AC81E8
:104E6000BD81281739074A075B0709F495CF2A85C2
:104E70003B854C855D85888D998DAA8DBB8D82176C
:104E80009307A407B50700F12E853F858E819F818A
:104E9000A885B985F90180839183A283B3838E8528
:104EA0009F8504968E879F872E853F858C8D9D8D4F
:104EB000AE8DBF8DF90180839183A283B3838E85EC
:104EC0009F8504968E879F8788A999A9DC018D917B
:104ED0009C91FC01228D338D448D558D8A819B815F
:104EE000AC81BD8182179307A407B50708F43DCFB5
:104EF00088A999A9DC0190962D913C9191978A857A
:104F00009B85AC85BD85F90180839183A283B383A2
:104F10002A853B854C855D85888D998DAA8DBB8DB5
:104F200082179307A407B50748F08E859F85DC019B
:104F30001D921D921D921C92139776C481E1898364
:104F400073C488A999A9FC012285338544855585B8
:104F50008AA99BA9ACA9BDA9281739074A075B07ED
:104F600058F488A999A9FC0182859385A485B58503
:104F70008AAB9BABACABBDAB28A939A98AA99BA9CD
:104F8000ACA9BDA9F90186839783A087B1878AA9B7
:104F90009BA9ACA9BDA90097A105B10509F444C41A
:104FA0008AA99BA9ACA9BDA99C01AD0121503040A3
:104FB0004040504088A999A9BA01A9010E94BD0D9D
:104FC000DC01CB0128A939A9F901828B938BA48B31
:104FD000B58B88A999A9DC018D919C9128A939A943
:104FE000F9012289338944895589BA01A9010E94AE
:104FF0005908DC01CB018CA39DA3AEA3BFA38CA158
:105000009DA1AEA1BFA10097A105B10571F488A92A
:1050100099A9DC0114968C911497282F206888A9EF
:1050200099A9FC01248382E000C48AA99BA9ACA9A8
:10503000BDA90197A109B1099C01AD01012E19E09B
:1050400056954795379527951A95D1F7102D88A92C
:1050500099A9DC018D919C91FC018281882F90E0BF
:105060000197AA2797FDA095BA2F82239323A42303
:10507000B5232CA13DA14EA15FA1820F931FA41FB8
:10508000B51F8CA39DA3AEA3BFA388A999A9FC01BA
:1050900086819781A085B1859170A070B0700097CE
:1050A000A105B10509F4C0C388A999A9DC015696E8
:1050B0002D913D914D915C9159978CA19DA1AEA1EF
:1050C000BFA1281739074A075B0709F4ADC388A9B0
:1050D00099A9FC018481882F90E0807490700097DA
:1050E000A9F188A999A9DC018D919C91DC01119607
:1050F000EC9188A999A9BC016E5D7F4F88A999A9F7
:10510000DC0156962D913D914D915C9159978E2FD2
:1051100001E00E94FD46882371F088A999A9FC014D
:105120008481282F206888A999A9DC0114962C93E2
:10513000149781E07AC388A999A9FC018481282F5A
:105140002F7B88A999A9DC0114962C9388A999A989
:10515000FC0180819181DC011196EC9188A999A9CB
:10516000BC016E5D7F4F2CA13DA14EA15FA18E2F92
:1051700001E00E947546882371F088A999A9FC0175
:105180008481282F206888A999A9DC0114962C9382
:10519000149781E04AC328A939A98CA19DA1AEA189
:1051A000BFA1F901868B978BA08FB18F3DC388A9D2
:1051B00099A9DC011A962D913D914D915C911D9715
:1051C0008AA99BA9ACA9BDA9281739074A075B077B
:1051D000A8F488A999A9FC018481882F90E08270A5
:1051E0009070009759F488A999A9FC01828593854C
:1051F000A485B5858AAB9BABACABBDAB88A999A99F
:10520000FC0186819781A085B18588A799A7AAA767
:10521000BBA71C8A1D8A1E8A1F8A28A939A98C89C6
:105220009D89AE89BF89F90186839783A087B1875D
:105230008AA99BA9ACA9BDA90097A105B10509F44C
:1052400033C288A999A9DC018D919C91FC018281CE
:10525000882F90E0A0E0B0E0072E79E0880F991F3A
:10526000AA1FBB1F7A95D1F7702D8CA79DA7AEA75B
:10527000BFA788A599A5AAA5BBA50097A105B105BB
:1052800009F46BC08AA99BA9ACA9BDA90197A10982
:10529000B1092CA53DA54EA55FA5BC01CD010E947D
:1052A000815079018A0188A599A5AAA5BBA5019776
:1052B000A109B1092CA53DA54EA55FA5BC01CD0155
:1052C0000E948150DA01C901E816F9060A071B0796
:1052D00008F443C088A599A5AAA5BBA59C01AD016A
:1052E00021503040404050408CA59DA5AEA5BFA5A3
:1052F000B095A095909581959F4FAF4FBF4F82235A
:105300009323A423B52328A939A9F9018683978378
:10531000A087B18788A999A9FC0186819781A0857A
:10532000B1852AA93BA94CA95DA979018A01E81A8E
:10533000F90A0A0B1B0BD801C7018AAB9BABACABBC
:10534000BDAB88A999A9FC0182899389A489B589F3
:10535000888B998BAA8BBB8B6BC088A999A9FC0100
:1053600086859785A089B189888B998BAA8BBB8B01
:1053700088899989AA89BB890097A105B10509F097
:105380004CC088A999A9DC018D919C9140E050E026
:10539000BA010E94430CDC01CB01888B998BAA8B4C
:1053A000BB8B88899989AA89BB8981309105A10520
:1053B000B10571F488A999A9FC018481282F20687E
:1053C00088A999A9DC0114962C93149782E02DC228
:1053D00088899989AA89BB898F3FEFEF9E07EFEFF4
:1053E000AE07EFEFBE0771F488A999A9DC01149606
:1053F0008C911497282F206888A999A9FC012483EF
:1054000081E013C228A939A988899989AA89BB8909
:10541000F90186879787A08BB18B28A939A988893C
:105420009989AA89BB89F901828B938BA48BB58B4F
:1054300088899989AA89BB890097A105B10509F4D2
:1054400033C1BEC088A999A9DC0114968C91149728
:10545000882F90E082709070009721F188A999A917
:10546000FC0180819181288939894A895B89BA0147
:10547000A9010E94430CDC01CB01888B998BAA8B7C
:10548000BB8B88899989AA89BB890097A105B10539
:10549000E1F48CA59DA5AEA5BFA58AAB9BABACAB3B
:1054A000BDAB9CC088A999A9DC018D919C912889EC
:1054B00039894A895B89BA01A9010E94AF08DC01D8
:1054C000CB01888B998BAA8BBB8B88899989AA89F8
:1054D000BB898F3FEFEF9E07EFEFAE07EFEFBE0701
:1054E00071F488A999A9DC0114968C911497282F3E
:1054F000206888A999A9FC01248381E096C1888944
:105500009989AA89BB8982309105A105B10598F0D6
:1055100088A999A9DC018D919C91FC01228D338D84
:10552000448D558D88899989AA89BB8982179307EB
:10553000A407B50770F088A999A9DC0114968C918D
:105540001497282F206888A999A9FC01248382E058
:105550006CC128A939A988899989AA89BB89F901C7
:10556000828B938BA48BB58B88A999A9DC011696A5
:105570002D913D914D915C9119978CA59DA5AEA55E
:10558000BFA5820F931FA41FB51F28A939A9F90130
:1055900086839783A087B1872AA93BA94CA95DA9D7
:1055A0008CA59DA5AEA5BFA579018A01E81AF90AC7
:1055B0000A0B1B0BD801C7018AAB9BABACABBDABD5
:1055C0002AA93BA94CA95DA98CA59DA5AEA5BFA5FF
:1055D00082179307A407B50708F434CF88A999A9BF
:1055E000DC0116962D913D914D915C9119978AA9F8
:1055F0009BA9ACA9BDA9820F931FA41FB51F28A901
:1056000039A9F90186839783A087B1878AA99BA9C5
:10561000ACA9BDA99170A070B0700097A105B105AB
:1056200009F442C088A999A9DC018D919C9128892F
:1056300039894A895B89BA01A9010E945908DC01AC
:10564000CB018C8B9D8BAE8BBF8B8C899D89AE895A
:10565000BF890097A105B10571F488A999A9FC013A
:105660008481282F206888A999A9DC0114962C939D
:10567000149782E0DAC08AA99BA9ACA9BDA9072E1C
:1056800079E0B695A795979587957A95D1F7702D7E
:105690002C893D894E895F89820F931FA41FB51FF6
:1056A0008C8B9D8BAE8BBF8B88A999A9FC018681C1
:1056B0009781A085B1859170A070B0700097A10509
:1056C000B10509F482C088A999A9DC0156962D91EB
:1056D0003D914D915C9159978C899D89AE89BF8987
:1056E000281739074A075B0709F46FC088A999A9E9
:1056F000FC018481882F90E0807490700097A9F15C
:1057000088A999A9DC018D919C91DC011196EC91FD
:1057100088A999A9BC016E5D7F4F88A999A9DC0170
:1057200056962D913D914D915C9159978E2F01E0A8
:105730000E94FD46882371F088A999A9FC01848103
:10574000282F206888A999A9DC0114962C93149716
:1057500081E06BC088A999A9FC018481282F2F7B47
:1057600088A999A9DC0114962C9388A999A9FC0110
:1057700080819181DC011196EC9188A999A9BC01E5
:105780006E5D7F4F2C893D894E895F898E2F01E0A8
:105790000E947546882371F088A999A9FC0184812B
:1057A000282F206888A999A9DC0114962C931497B6
:1057B00081E03BC028A939A98C899D89AE89BF8920
:1057C000F901868B978BA08FB18F88A999A9DC01ED
:1057D00016962D913D914D915C91199788A999A9A3
:1057E000FC0182859385A485B58582179307A4075C
:1057F000B507D0F488A999A9FC0186819781A08575
:10580000B18528A939A9F90182879387A487B5872B
:1058100088A999A9DC0114968C911497282F2062ED
:1058200088A999A9FC0124838981E596CDBFDEBFB3
:10583000CF91DF911F910F91FF90EF900895DF932B
:10584000CF93CDB7DEB76397CDBFDEBF888B998B83
:105850006A8B7B8B88899989009711F489E07BC0DA
:1058600028893989CE014296B90140E00E94C216CA
:10587000898388899989FC01808191818A839B83AE
:105880008981882309F061C0888999899E012C5FEC
:105890003F4FFC01248B358B2A893B898889998964
:1058A000B9010E948E1589838981882309F03FC040
:1058B00088899989FC0182899389009721F18889D7
:1058C0009989FC01828993890B96FC018081882F3C
:1058D00090E0807190700097A1F088899989FC010F
:1058E000228933898A819B81B9010E947511DC016B
:1058F000CB0128893989F90186839783A087B187ED
:1059000002C085E089838981882389F48A819B810B
:10591000FC012681378188899989FC0122833383A0
:105920008889998960E070E00E94550E8983898199
:10593000843011F485E089838981882359F088892E
:105940009989FC011082118205C088899989FC011E
:105950001082118289816396CDBFDEBFCF91DF9126
:105960000895DF93CF93CDB7DEB76197CDBFDEBF8C
:105970008E879F87688B798B8E859F850E94C61A3C
:1059800089838981882309F040C088899989009793
:1059900041F48E859F8560E070E00E94550E8983FA
:1059A00034C08E859F859E012E5F3F4FFC01248B66
:1059B000358B8E859F850E94491289838981843029
:1059C00041F48E859F85FC0116861786108A118A00
:1059D000198289818823C9F48E859F852889398910
:1059E000B9010E94CB148E859F8560E070E00E9413
:1059F000A70F89838981843041F48E859F85FC01BE
:105A000016861786108A118A198289816196CDBF00
:105A1000DEBFCF91DF910895DF93CF93CDB7DEB78F
:105A2000A797CDBFDEBF8CA39DA36EA37FA3CE019E
:105A300084969E012E5F3F4FB90140E00E94C2163E
:105A4000898389818823E9F4CE0148968E8B9F8BC8
:105A50002CA13DA1CE010296B9010E948E15898329
:105A60008981882371F48C899D89009741F0CE014A
:105A700002962EA13FA1B9010E94CB1402C086E07C
:105A800089838981A796CDBFDEBFCF91DF9108952D
:105A9000DF93CF93CDB7DEB76E97CDBFDEBF898FD3
:105AA0009A8F6B8F7C8F4D8F5E8FCE0149962D8D97
:105AB0003E8DB90140E00E94C21689838D8D9E8D76
:105AC000FC01808191818A8B9B8B8981882309F0DD
:105AD0004CC18A899B89FC0126853785408951897B
